:100000000C94FE060C9436070C9436070C943607B5
:100010000C9436070C9436070C9436070C9436076C
:100020000C9436070C9436070C94E52B0C94B92CE1
:100030000C94F2260C9436070C9436070C94360771
:100040000C9436070C9436070C9436070C9436073C
:100050000C9436070C9479270C9436070C943607C9
:100060000C9436070C9436070C9436070C9436071C
:100070000C9436070C9436070C9436070C9436070C
:100080000C9436070C9436070C9436070C943607FC
:100090000C9436070C9436070C9436070C943607EC
:1000A0000C9436070C9436070C94360729003A0056
:1000B0003B003C003D003E003F004000410042004C
:1000C000430044004500460020784C0035001E00E7
:1000D0001F0020002100220023002400250026000C
:1000E00027002D002E0000002A0005522B000000E2
:1000F00014001A00090013000A000D000F00180078
:100100001C0033002F00300031004E0081520000EF
:10011000040015001600170007000B00110008006E
:100120000C0012003400280000004A00E1002A0000
:100130001D001B000600190005000E00100036000F
:10014000370038000000E50052004D00E000E300F9
:1001500000008252000000002C000000000000009F
:10016000E2008352E400500051004F000000000004
:10017000000000000000000000000000000000007F
:10018000000000000000000000000000000000006F
:10019000000000000000000000000000000000005F
:1001A000000000000000000000000000000000004F
:1001B0000000000000000000000000004A004E00A7
:1001C0004B004D0000000000000000002A4100002C
:1001D000000000000000000000000B000D000E00F9
:1001E0000F0000000000000000000000E10001001E
:1001F00000000000000000000000000000000000FF
:10020000000000000000000000000000E000E3002B
:1002100000000100000000000000000000000000DD
:10022000E200E300E4000000000000000000000025
:1002300000000000000000000000000000000000BE
:1002400000000000000000000000000000000000AE
:10025000000000000000000000000000000000009E
:10026000000000000000000000000000000000008E
:1002700022022D002D0200000000000000001F02DD
:100280002302350200000000000000000000000012
:1002900021021E022E022E00310224022F0226020B
:1002A0002F0036023500000000000000245200003C
:1002B0000000000020022502000037003600310057
:1002C000000000000000000000000000E000E3006B
:1002D000000001000000000000000000000000001D
:1002E00000000000000000000000000000002B786B
:1002F0002C782E782F783078317832783378000067
:100300000000000000000000000000000000027873
:100310000578047803782078217822782378247867
:1003200000000000000000000000000000000000CD
:10033000240025002600000000000000000000004E
:1003400000000000000000000000000000000000AD
:100350002100220023000000000000000000000037
:10036000000000000000000000000000E100270085
:100370001E001F0020000000000000000000000020
:10038000000000000000000000000000E000E300AA
:100390000000E2000000000000000000000000007B
:1003A000000001000000000000000000000000004C
:1003B000000000000000000000000000000000003D
:1003C000000000000000000000000000000000002D
:1003D000000000000000000000000000000000001D
:1003E000000000000000000000000000000000000D
:1003F00000000000000000000000000000000000FD
:1004000000000000000000000000000000000000EC
:100410000000000000000000000000003002270281
:100420003000370200000000000000000100000062
:1004300000000000000000000000000000000000BC
:1004400000000000000000000000000000000000AC
:10045000000000000000000000000000000000009C
:10046000000000000000000000000000000000008C
:10047000000000000000000000000000000000007C
:1004800000000000000000000000000035001E0019
:100490001F00200021002200230024002500260048
:1004A00027002D002E0000002A0000522B00000023
:1004B00014001A000800150017001C0018000C009A
:1004C000120013002F003000310000002A0000004D
:1004D00004001600070009000A000B000D000E00C2
:1004E0000F0033003400280000000000E10000008D
:1004F0001D001B0006001900050011001000360049
:10050000370038000000E20052000000E000E30085
:100510000000E200000000002C00000000000000CD
:10052000E600E700E400500051004F000100010028
:1005300001000100010001000100010001000100B3
:1005400001000100010001000100010001000100A3
:100550000100010001000100010001000100010093
:100560000100010001000000010001000100000085
:100570000100010001000100010001000100010073
:100580000100010001000100010001000100000064
:100590000100010001000100010001000100010053
:1005A0000100010001000100000001000100010044
:1005B0000100010001000100010001000100010033
:1005C0000100010000000100010001000100010024
:1005D0000000010000000000010000000000000019
:1005E0000100010001000100010001000100010003
:1005F00001000100010001000100010001000100F3
:1006000001000100010001000100010001000100E2
:1006100001000100010001000100010001000100D2
:1006200001000100010000000100010001000000C4
:1006300001000100010001000100010001000100B2
:1006400001000100010001000100010001000000A3
:100650000100010001000100010001000100010092
:100660000100010001000100000001000100010083
:100670000100010001000100010001000100010072
:100680000100010000000100010001000100010063
:100690000000010000000000010000000000000058
:1006A0000100010001000100010001000100010042
:1006B0000100010001000100010001000100010032
:1006C0000100010001000100010001000100010022
:1006D0000100010001000100010001000100010012
:1006E0000100010001000000010001000100000004
:1006F00001000100010001000100010001000100F2
:1007000001000100010001000100010001000000E2
:1007100001000100010001000100010001000100D1
:1007200001000100010001000000010001000100C2
:1007300001000100010001000100010001000100B1
:1007400001000100000001000100010001000100A2
:100750000000010000000000010000000000000097
:100760000100010001000100010001000100010081
:100770000100010001000100010001000100010071
:100780000100010001000100010001000100010061
:100790000100010001000100010001000100010051
:1007A0000100010001000000010001000100000043
:1007B0000100010001000100010001000100010031
:1007C0000100010001000100010001000100000022
:1007D0000100010001000100010001000100010011
:1007E0000100010001000100000001000100010002
:1007F00001000100010001000100010001000100F1
:1008000001000100000001000100010001000100E1
:1008100000000100000000000100000000000000D6
:1008200001000100010001000100010001000100C0
:1008300001000100010001000100010001000100B0
:1008400001000100010001000100010001000100A0
:100850000100010001000100010001000100010090
:100860000100010001000000010001000100000082
:100870000100010001000100010001000100010070
:100880000100010001000100010001000100000061
:100890000100010001000100010001000100010050
:1008A0000100010001000100000001000100010041
:1008B0000100010001000100010001000100010030
:1008C0000100010000000100010001000100010021
:1008D0000000010000000000010000000000000016
:1008E0000100010001000100010001000100010000
:1008F00001000100010001000100010001000100F0
:1009000001000100010001000100010001000100DF
:1009100001000100010001000100010001000100CF
:1009200001000100010000000100010001000000C1
:1009300001000100010001000100010001000100AF
:1009400001000100010001000100010001000000A0
:10095000010001000100010001000100010001008F
:100960000100010001000100000001000100010080
:10097000010001000100010001000100010001006F
:100980000100010000000100010001000100010060
:100990000000010000000000010000000000000055
:1009A0000100010001000100010001000000000041
:1009B0000000000000000000000000000000000037
:1009C0000000000000000000000000000000000027
:1009D0000000000000000000000000000000000017
:1009E0000000000000000000000000000000000007
:1009F00000000000000000000000000000000000F7
:100A000000000000000000000000000000000000E6
:100A100000000000000000000000000000000000D6
:100A200000000000000000000000000000000000C6
:100A300000000000000000000000000000000000B6
:100A400000000000000000000000000000000000A6
:100A50000000010000000000000000000000000095
:100A60000000000000000000000000001E0F050054
:100A7000047F3F1F643214643214783C1E1E140A33
:100A8000052223252628292A2C2D2F3032333536CE
:100A9000383A3B3D3E4042434547494A4C4E50510F
:100AA000535557595A5C5E6062646668696B6D6F36
:100AB00071737577797B7D7F81838587898A8C8E39
:100AC00090929496989A9C9E9FA1A3A5A7A8AAAC41
:100AD000AEAFB1B3B4B6B8B9BBBCBEBFC1C2C3C57B
:100AE000C6C7C9CACBCCCDCED0D1D2D2D3D4D5D61D
:100AF000D7D7D8D9D9DADADBDBDBDCDCDCDCDCDD50
:100B0000DDDDDDDCDCDCDCDCDBDBDBDADAD9D9D833
:100B1000D7D7D6D5D4D3D2D2D1D0CECDCCCBCAC9CB
:100B2000C7C6C5C3C2C1BFBEBCBBB9B8B6B4B3B1FA
:100B3000AFAEACAAA8A7A5A3A19F9E9C9A98969495
:100B400092908E8C8A89878583817F7D7B7977756A
:100B500073716F6D6B6968666462605E5C5A595749
:100B6000555351504E4C4A4947454342403E3D3B08
:100B70003A3836353332302F2D2C2A292826252392
:100B800022FFAA7F5540000101010101010101017D
:100B9000020202020202020202030303030303032E
:100BA00003040404040404040505050505060606FB
:100BB0000606070707070708080808090909090AB8
:100BC0000A0A0B0B0B0C0C0C0D0D0D0E0E0E0F0F5D
:100BD0000F101011111112121313141415151616EB
:100BE0001717181819191A1A1B1B1C1D1D1E1E1F5A
:100BF0002020212222232424252626272829292AA9
:100C00002B2C2D2D2E2F30313232333435363738D0
:100C1000393A3B3C3D3E3F404142434445464748CC
:100C2000494A4C4D4E4F50515354555658595A5BA2
:100C30005D5E5F616264656668696B6C6D6F707242
:100C4000737577787A7B7D7E8082838587888A8CAE
:100C50008E8F91939596989A9C9EA0A2A3A5A7A9E2
:100C6000ABADAFB1B3B5B7BABCBEC0C2C4C6C9CBD9
:100C7000CDCFD1D4D6D8DBDDDFE2E4E7E9EBEEF08F
:100C8000F3F5F8FAFDFF16034B004200440037006D
:100C9000350020007200650076003200000010036D
:100CA0004B0042004400660061006E0073000000CB
:100CB0000403090409023B00020100A0FA09040030
:100CC0000001030101000921110100012244000774
:100CD0000581030800010904010001030000000967
:100CE000211101000122B600070582032000011234
:100CF00001000200000008424B6160020001020096
:100D00000105010902A10185020901A100050919D6
:100D100001290815002501950875018102050109C1
:100D20003009311581257F9502750881060938152E
:100D300081257F950175088106050C0A3802158109
:100D4000257F950175088106C0C005010980A101B4
:100D5000850319012AB700150126B7009501751002
:100D60008100C0050C0901A101850419012AA00216
:100D7000150126A002950175108100C00501090624
:100D8000A1018506050719E029E715002501950849
:100D9000750181020507190029EF1500250195F05D
:100DA0007501810205081901290595057501910252
:100DB000950175039101C005010906A101050719F7
:100DC000E029E71500250195087501810295017557
:100DD0000881010507190029FF150026FF00950667
:100DE00075088100050819012905150025019505DB
:100DF00075019102950175039101C00011241FBE78
:100E0000CFEFDAE0DEBFCDBF04B603FE18C080919D
:100E1000B7039091B803A091B903B091BA0387309A
:100E2000904BA740B04B59F41092B7031092B803FF
:100E30001092B9031092BA03E0E0F8E3099511E0CB
:100E4000A0E0B1E0ECE6F1E602C005900D92AE3D07
:100E5000B107D9F723E0AEEDB1E001C01D92A73B89
:100E6000B207E1F70E9411170C9460300C94000057
:100E70008D30C8F46630B8F44031A8F4E62FF0E0C5
:100E800096E0899FE00DF11D112484E0EE0FFF1F15
:100E90008A95E1F7E40FF11DEE0FFF1FE455FF4FB8
:100EA00085919491089581E090E008950E9438071B
:100EB000089581E008950E945907089581E00895FA
:100EC0000E94590708950E946007089508950E949E
:100ED00066070895A6E0B0E0E0E7F7E00C940C2F79
:100EE00049835A839E833091E50189819A8131112A
:100EF0001AC03E81332399F0222389F00E94810D8C
:100F0000182F682F89819A810E945E0D69817A81EC
:100F1000812F0E9472142696E3E00C94282F0E94E1
:100F20006F0D182FF3CF0E94810D69817A81F1CF67
:100F3000FC01262F408151816281738184819581DA
:100F40000E946A070895CF93DF93EC0161E00E944D
:100F50009807BE010E945B07DF91CF910895CF9360
:100F6000DF93EC0160E00E949807BE010E946707D2
:100F7000DF91CF91089508950E94330C0E94BB0722
:100F80002FEF84E39CE0215080409040E1F700C0C7
:100F9000000008950E94BC070E949D2708950E94AA
:100FA000BC070E94C12708950F931F93CF93DF932F
:100FB0008C0161E00E949807EC01B8010E94630770
:100FC000811106C080E0DF91CF911F910F910895AC
:100FD000B801CE010E9479228823A1F3B801CE0185
:100FE0000E94F224882371F3B801CE010E94882365
:100FF000882341F3B801CE010E946424882311F3B1
:10100000B801CE010E941F218823E1F2F8018581F9
:10101000882361F0C330FCE7DF07E9F058F4C1151D
:10102000ECE7DE07A9F0C130DC47B9F0C8010E9447
:101030005E07C9CFCB358CE7D807A9F0CC35ECE7F4
:10104000DE0771F0CA35DC4789F70E94B711EECF91
:101050000E94CA07B7CF0E94BF110E94CF07B2CF2C
:101060000E94AD11E3CF0E94BB11E0CF0E94CE26BB
:1010700080E00E9458220E946D080E946D1F089512
:101080000E94A5210E9471080E945C200E94D32624
:101090000895089581E0089581FD02C02A9A089577
:1010A0002A980895CF93DF93D82F0E944A08C82F1B
:1010B000882319F08D2F0E944C088C2FDF91CF913F
:1010C0000895229A2A9A0895CF93C82F0E9449081A
:1010D0008C2F0E945208CF91089580E00E946408EE
:1010E00008950E943B250E9464080895CF930E94B2
:1010F0003B25C82F8091E0018C1779F0C093E00167
:101100000E945E276093E1017093E2018093E30106
:101110009093E4018C2F0E946408CF910895ADE074
:10112000B0E0E5E9F8E00C940D2F488759876A870D
:101130007B878C879D8791110E94E5101F8286E036
:10114000FE013896DE01119601900D928A95E1F725
:101150008D8181110DC029813A814B815C816D8126
:101160007E818F810E9418102D96E2E00C94292F29
:10117000CE0101960E94A3078111EDCFF5CFFC01AE
:101180002481213021F4808191810E94B30D089542
:10119000662329F00E94A8170E947B1808950E94D8
:1011A0000218FACFCF93C82F8823C9F08238C9F428
:1011B0000E94482581FD13C089E30E949D100E9472
:1011C0001E112FEF87EE93E0215080409040E1F711
:1011D00000C0000089E30E94A5100E941E11CF915B
:1011E00008958338A1F40E94482580FDF8CF83E557
:1011F0000E949D100E941E112FEF81EE94E021505D
:1012000080409040E1F700C0000083E5E4CF8438DF
:10121000A1F40E94482582FDE2CF87E40E949D1040
:101220000E941E112FEF81EE94E0215080409040EB
:10123000E1F700C0000087E4CECF8CEF8C0F813A3D
:1012400090F46C2F80910401909105010E94D125AA
:10125000882329F08C2F0E94A5100E941E118C2F2C
:101260000E949D10BACF80E28C0F883048F4C7707E
:1012700081E001C0880FCA95EAF70E94C810ADCF7F
:10128000EBE5EC0FE33040F4F0E0E05AFE4F8081F4
:1012900090E00E947325A3CFE8E5EC0FEB3150F40A
:1012A000F0E0EE0FFF1FE65DFE4F808191810E940E
:1012B000982595CF83E38C0F833108F090CF61E0C0
:1012C0008C2F0E94C8088BCF882309F456C082381F
:1012D00079F40E94482581FF50C089E30E949D1047
:1012E0000E941E1189E30E94A5100E941E110895FC
:1012F000833859F40E94482580FF3FC083E50E944F
:101300009D100E941E1183E5EECF843859F40E948F
:10131000482582FF32C087E40E949D100E941E1162
:1013200087E4E1CF9CEF980F913AE8F290E2980FB2
:10133000983050F4877091E001C0990F8A95EAF7D0
:10134000892F0E94CE10D1CF9BE5980F933028F4BF
:1013500090E080E00E947325089598E5980F9B31F6
:1013600028F490E080E00E949825089593E3980F78
:10137000933118F460E00E94C80808951F93CF933A
:10138000DF93182FEB010E94D208209739F4812FA8
:101390000E946409DF91CF911F9108958FE99FE02A
:1013A0000197F1F700C000002197EFCF70E060E0F7
:1013B000893311F460E570E00E94BE090895882326
:1013C00021F00E94C8100E941E110895882321F068
:1013D0000E94CE100E941E110895B0E0A0E0E3EF3D
:1013E000F9E00C94062F6C01D62FC72FFC01158154
:1013F000068102950F700E94BE10E82E8823E9F046
:10140000E12E1123D1F08C2F807F803451F080E2C7
:101410008D0F8830F8F0011104C08C2F807E80324F
:10142000C9F08091540382FF15C082E00E948111AF
:101430000E94BE1091E0E82EE926BC2EB2949FE0F7
:10144000B922FBE0FB15B8F1EB2DF0E0EE59FF4CB3
:101450000C94C62EE12CF1CF0C2F0F70C07F11F031
:101460000295007F112399F0002359F080E28D0F3F
:10147000883010F0D11107C0802F0E94C8100E9440
:101480001E118D2F5AC0802F0E94D810F8CF8D2F9B
:101490000E946409002379F080E28D0F883010F0FB
:1014A000D11104C0802F0E94CE1003C0802F0E9453
:1014B000DE100E941E11EB2DE850FF0B349720F434
:1014C0000E943B250E946408EE2089F00E94BA1019
:1014D00080FD0DC0F60115820E94B4100E94BC0C64
:1014E000C6010E94FA0B0E94B4100E94CC0CCDB72A
:1014F000DEB7E9E00C94222F2C2F2F70F22EC07F44
:10150000C03219F0F29480EFF822DD2341F0D1309F
:10151000D1F1112309F444C00023F1F0B2CF80913E
:10152000540382FD15C0112359F0FF2029F08F2D9F
:101530000E94C8100E941E1180E00E94D208BBCFFA
:1015400080E00E946409FF2009F4B5CF8F2DABCF56
:10155000112369F0011104C08F2D0E94DF09ABCF68
:10156000013009F0A8CF8F2D0E94FC10A4CF0111EB
:10157000A2CF8F2D0E94E6098F2D0E9408118F2D7A
:101580000E94EC1098CF112321F0063008F093CF81
:10159000E3CF053008F08FCF8F2D0E94E6098BCF67
:1015A0000023D1F3D93349F43FEF87EE93E0315074
:1015B00080409040E1F700C000008D2F0E94640938
:1015C0007ACF8C2F86958695837069F0813009F0EB
:1015D00072CF8D2F9C2F9370111102C080E090E08C
:1015E0000E94982568CF8D2F9C2F9370111102C0F7
:1015F00080E090E00E9473255ECF612F8D2F0E94C6
:10160000C80859CF8C2F8370A1F5111154CF4D2FDD
:10161000429546954770440F440F2D2F2F7030E0B0
:10162000042E02C0220F331F0A94E2F790E080E0FC
:10163000D4FF09C08FE090E002C0880F991F4A953F
:10164000E2F780959095C695C695C370822B932B33
:10165000C23049F058F4C13019F00E948C0C2BCFE5
:101660000E94830C28CF0E94950C25CF0E94800CED
:1016700022CF8695112311F08C2F8170882309F4D5
:101680001ACF4D2F429546954770440F440F2D2F8A
:101690002F7030E0042E02C0220F331F0A94E2F7AD
:1016A00090E080E0D4FF09C08FE090E002C0880F96
:1016B000991F4A95E2F780959095C695C695C37097
:1016C000822B932BC23049F058F4C13019F00E949C
:1016D000F70CF1CE0E94EE0CEECE0E94000DEBCE88
:1016E0000E94A40CE8CECF70112329F08C2F0E9409
:1016F000BC0C8D2F32CF8D2F0E94E6098C2F0E94BB
:10170000CC0CD9CED23F41F160F4D03FB9F0D13FFB
:1017100081F0112309F446C00111B3CE8C2F8F71D3
:101720001FC0D33F01F1D43FA1F78091540382FD44
:1017300024C08C2F8F71112311F312C0112341F09B
:10174000053008F0B8CE8C2F8F710E94DE0CB3CE1E
:10175000063008F0B0CEF7CF8C2F8F711111CFCF9C
:101760000E94BC0CA8CE112329F08C2F8F710E94EF
:10177000B00CA1CE0E94AB0C9ECE112349F0CF71CC
:101780008C2F0E94BC0C63E08C2F0E94631193CEBF
:1017900081E00E948111023008F48DCE82E00E9427
:1017A000811189CE002359F0D93309F006CFEFEF2C
:1017B000F7EE23E0E150F0402040E1F7FCCE8C2F23
:1017C0008F719DCF0F931F93CF93DF93EC016881AF
:1017D00079818D810E94BE0D8C010E94090D0E94AD
:1017E0007F0CB801CE010E94ED09DF91CF911F91CE
:1017F0000F910895CF93DF93EC018C81882399F0AA
:10180000CE010E94D407811111C00E94BE1088230E
:1018100051F08D81882339F08091540382FF03C0F9
:1018200082E00E948111DF91CF910895CE010E9444
:10183000E20BCE010E94AF07F6CF90E080E00E945D
:10184000732590E080E00E9498250E94E5100E9498
:101850001E110E9497180E947B1808950E94AD10D7
:101860000E941D0C08950E94D5100E942E0C089510
:1018700092959F70963091F058F4925F9F709230DD
:1018800058F4803F19F030F4883E30F481E0089538
:101890009A5FF4CF843FD1F380E00895883EB0F39F
:1018A000813FD1F7F3CFFC012481222339F08081DD
:1018B00091810E94B30D0E94380C089580E0089534
:1018C000A6E0B0E0E6E6FCE00C940D2F2696E2E000
:1018D0000C94292FA7E0B0E0E0E7FCE00C940D2F7A
:1018E0002796E2E00C94292F08950E94740C089525
:1018F0000E94750C90931902809318020895089520
:101900000E94780C08952091180230911902822BC0
:10191000932B0E94780C089520911802309119029F
:10192000822393230E94780C08952091180230910D
:101930001902822793270E94780C08950E94740C44
:1019400008950E949E0C08950E94A10C9093170286
:1019500080931602089590E080E00E94A40C089500
:1019600021E030E0A90102C0440F551F8A95E2F73B
:10197000CA010E94A40C089521E030E002C0220FA9
:10198000331F8A95E2F78091160290911702822BFD
:10199000932B0E94A40C089521E030E002C0220F96
:1019A000331F8A95E2F72095309580911602909129
:1019B0001702822393230E94A40C089521E030E0B3
:1019C00002C0220F331F8A95E2F780911602909190
:1019D0001702822793270E94A40C089520911602D3
:1019E00030911702822B932B0E94A40C0895209112
:1019F000160230911702822393230E94A40C0895AB
:101A00002091160230911702822793270E94A40C7E
:101A100008950895262F277091E001C0990F2A9507
:101A2000EAF723E0769567952A95E1F7660F771F29
:101A3000660F771FFA01E60FF71F50E040E0682FAE
:101A400070E08191DF0111979B01042E02C0369551
:101A500027950A94E2F72170219528272923282722
:101A60002C934F5F5F4F4430510559F70895A82FCD
:101A7000A77023E0969587952A95E1F7880F991F1F
:101A8000880F991FFB01E80FF91F50E040E080E04C
:101A9000219130E00A2E02C0369527950A94E2F78C
:101AA00021703327042E01C0220F0A94EAF7822BFB
:101AB0004F5F5F4F4430510559F70895262F9630F8
:101AC00068F4803158F430E1939FB0011124680F1D
:101AD000711D46EE51E0822F0E940A0D0895963046
:101AE00070F4803160F440E1949F9001112466EE1F
:101AF00071E0820F932F911D0E94370D089580E0B1
:101B00000895B0E0A0E0E7E8FDE00C94062F7C012A
:101B100000911602109117028091180290911902FB
:101B2000082B192BCFE0D0E0CC24C394D12CBC2EB1
:101B3000C6010C2E02C0880F991F0A94E2F7802379
:101B40009123892B49F4219790F7B12C8B2DCDB798
:101B5000DEB7E9E00C94222FB7018C2F0E947E148F
:101B6000019789F3F3CFCF93DF93EC010E94810DAE
:101B7000BE010E947E14DF91CF9108951F93CF93F1
:101B8000DF93EB019091E501992339F0CB010E949D
:101B9000B30DDF91CF911F910895882369F0CB0198
:101BA0000E94810D182F682FCE010E945E0DBE018C
:101BB000812F0E947E14EDCFCB010E946F0D182F54
:101BC000F6CF1F93CF93DF93C0911A0217E0809155
:101BD0001B028C1304C0DF91CF911F910895D0E0B8
:101BE0001C9FF0011D9FF00D1124E45EFD4F20812C
:101BF0003181428153816481758186810E946A0CA2
:101C00002196C770E4CF2091540230915502409143
:101C1000560250915702609158027091590280917A
:101C20005A020E946A0C0895CF93DF9380915A0262
:101C3000807F09F04DC080915902882309F448C083
:101C4000E0911A0250911B02C0915502D0915402AA
:101C5000609156027091570247E05E17C9F18E2FCE
:101C600090E0E49FF0011124E45EFD4F24812223E3
:101C700091F1489FF001499FF00D1124DF01A45E0E
:101C8000BD4F11962C9111972C1325C02C912D131B
:101C900022C015962C91159721111DC012962D91D9
:101CA0003C91261B370B283C3105A8F480915A0241
:101CB0008F70806180935A02EE5DFD4F80818F703E
:101CC0008061808384E592E00E94FA0B0E94E10D1E
:101CD000DF91CF910895FC013196E770BECF482F78
:101CE00020911A0290911B0257E0291302C080E054
:101CF000089530E0529FF001539FF00D1124E45EEF
:101D0000FD4F8181681306C08081481303C085811F
:101D10008111EECF2F5F3F4F2770E7CFA4E1B0E0F6
:101D2000E4E9FEE00C94032F8C0186E0F801DE016B
:101D30001F9601900D928A95E1F7F8018481E58064
:101D400094E5A92E92E0B92E9091580291111FC0EE
:101D50008823D1F0EE20A9F0C8010E94530CF82E80
:101D6000882379F087E0F801D50101900D928A95DA
:101D7000E1F7C5010E94BF080E94140E0E94030EE5
:101D80005FC0C8010E94FA0BFF24F39459C0C080C1
:101D9000D18082809380F090590220915602309138
:101DA0005702A401421B530BFF2009F4F9C0483C21
:101DB000510508F0A7C0882309F442C0909155024C
:101DC00080915A02282F207F09F05CC09D1116C017
:101DD00090915402C91212C0E1104EC08F70806100
:101DE00080935A020E94030E84E592E00E94FA0B4F
:101DF00080915A02F8018683F12C22C0E1103CC088
:101E00006D2D8C2D0E946F0E6D2D8C2D0E946F0EEE
:101E1000E82E8111F1CFCF86D88A8F8598890E94CC
:101E2000B30D292F22952F70243078F49F70223023
:101E3000A8F09923B9F0F8019681907F99F4FE2CCF
:101E40008F2D6496ECE00C941F2F2A5F2F702230A8
:101E500068F0C8010E94FA0BEF2CF1CF992311F022
:101E6000882369F3805E883050F3F3CF803F38F3E6
:101E7000815F833070F7E3CF80915A028160809355
:101E80005A02BACF9D1113C090915402C9120FC0CB
:101E9000E1100DC08683C8010E94FA0B87E0F801AB
:101EA000A4E5B2E001900D928A95E1F767CFC801F1
:101EB0000E94530C882309F464CFEE2009F461CF0B
:101EC00080915A02803288F020915402309155025C
:101ED000398728879B868A86909158029C871D8621
:101EE0008E87CE0108960E94FA0B87E0F801A4E5E0
:101EF000B2E001900D928A95E1F70E94140E0E94C3
:101F0000030E42CF90915A02292F207FA1F4682D11
:101F10009A8A898AA6017A899E2D0E94600C84E59E
:101F200092E00E94FA0B87E0F50111928A95E9F799
:101F30000E94030E61CF882309F482CF809155025D
:101F40008D1110C080915402C8120CC0E1100AC05B
:101F50009683C8010E94FA0B87E0F50111928A95D9
:101F6000E9F76ECFC8010E94530C882309F409CF0A
:101F7000EE2009F406CF80915A02803208F4B5CFE2
:101F800020915402309155023A8329839C828B829E
:101F9000909158029D831E828F83CE010196A3CF1C
:101FA000483C5105B8F5882309F4EECEFE2CEE200E
:101FB00009F4E7CE809155028D111EC08091540224
:101FC000C8121AC080915A0280FD0DC0982F907FD0
:101FD00051F08683903F09F45ECF982F907F905FF9
:101FE0008F70892B57CF87E0F801A4E5B2E001900C
:101FF0000D928A95E1F724CFC8010E94530C8111FC
:1020000074CF80915A02816080935A02C8010E9465
:10201000FA0B16CF682D9A8A898AA6017A899E2D95
:102020000E94600C87E0F50111928A95E9F7A6CE2F
:10203000AEE0B0E0EEE1F0E10C940C2F2887398798
:102040004A875B876C877D878E87CE0108960E94C2
:102050008E0E8823B1F06C85662341F02885398582
:102060004A855B857D858E850E946A0C17E080918C
:102070001A0290911B0289133DC02E96E3E00C9446
:10208000282F87E0FE013896DE01119601900D920F
:102090008A95E1F78C85882349F320911B0230E073
:1020A000C90101968770992740911A0248171906AD
:1020B00099F097E0929FD001939FB00D1124A45EF8
:1020C000BD4FFE01319601900D929A95E1F78093F4
:1020D0001B020E94E10DCACF0E94330C10921B021A
:1020E00010921A0287E0E4E5F2E0DF011D928A9582
:1020F000E9F7BCCF819FC0011124845E9D4F0E94EF
:102100008E0E882309F4B9CFE0911A021E9FF001C8
:102110001124E45EFD4F208131814281538164812D
:10212000758186810E946A0C80911A0290E0019666
:102130008770992780931A029ACF682F80910401A3
:10214000909105010E9451260895682F8091040105
:10215000909105010E945F2608958091040190915D
:1021600005010E946D26089580917B0286958695D3
:102170008695089580917B028770089590917B02E7
:10218000977081E009F480E0089580919F0208959E
:1021900090919F02892B80939F0208958095909142
:1021A0009F02982390939F02089510929F02089592
:1021B00090919E02892B80939E0208958095909124
:1021C0009E02982390939E02089510929E02089575
:1021D00008950E94E810089590917C02292F2823E9
:1021E00031F08095892380937C020E94E910089544
:1021F00008950E94F810089590917D02292F2823B8
:10220000281729F0982B90937D020E94F9100895C9
:1022100090917D02292F282331F080958923809386
:102220007D020E94F910089580917D02882329F093
:1022300010927D0280E00E94F9100895CF93DF9301
:10224000E0910401F091050180919F028083E0916B
:102250000401F0910501808190919E02892B808379
:1022600090917D02992381F0E0910401F0910501A4
:102270008081892B808380910401909105010E94C7
:10228000BD2581110E941411C0910401D091050156
:1022900040E250E06BE572E0CE010E94D32F892B23
:1022A00059F080E2FE01ABE5B2E001900D928A9513
:1022B000E1F7CE010E944B25DF91CF91089508955B
:1022C0000E945F1108959091540392FF11C098E00D
:1022D000899F90011124622B60937B020E94BC0CA9
:1022E00080917B028695869586950E94601108955F
:1022F0000E94BC0C089510927B0280E00E94601145
:10230000089590917B028095892380937B02282FEA
:10231000277069F4891759F09091540392FF07C010
:102320008695869586950E94CC0C0E947B11089517
:102330009091540392FB222720F9281769F080FB23
:1023400092F99093540380915303909154030E9407
:10235000E01182E00E94811108958091540382FB74
:10236000882780F991E089270E949811089581E0DB
:102370000E949811089580E00E94981108956FEFCF
:102380007FEF90E080E00E942B30089590E080E0A5
:102390000E94F72F21E0863E9E4F09F020E0822F19
:1023A000089582E090E00E94E92F089583E090E094
:1023B0000E94E92F089584E090E00E94F72F08958D
:1023C000BC0184E090E00E942B300895AB01BC0179
:1023D0008FE090E00E941F300895AB01BC0183E1C3
:1023E00090E00E941F30089560E070E0CB010E94F1
:1023F000ED11089560E070E0CB010E94E6110E94AB
:10240000F4110895A8E0B0E0E8E0F2E10C940D2F9B
:1024100066EE7EEF90E080E00E942B3060E082E08C
:1024200090E00E940D3060E083E090E00E940D306B
:10243000109219021092180260E074E184E090E0BA
:102440000E942B3060E086E090E00E940D306FEF3C
:1024500087E090E00E940D3040E050E0BA0188E053
:1024600090E00E941F3060E084E290E00E940D3016
:1024700060E087E190E00E940D3060E08CE090E049
:102480000E940D3060E08DE090E00E940D301982D6
:102490001A821B821C821D821E821F82188648E0BF
:1024A00050E068E170E0CE0101960E94FD2F40E00F
:1024B00050E0BA0180E290E00E941F300E94FA11C1
:1024C0002896E2E00C94292F0E9402120895682FAA
:1024D0008EE090E00E940D300895A6E0B0E0E3E7C2
:1024E000F2E10C940B2F0E9452278C018091A002E4
:1024F0009091A1028017910781F019821A820E949F
:102500005227682F49815A81792F80E090E00E94FC
:102510008F081093A1020093A0022696E4E00C9489
:10252000272F0E945E276093B2027093B3028093BC
:10253000B4029093B5026093AE027093AF028093A1
:10254000B0029093B1020895089508950E94A412D4
:10255000089508950E94A912089584E795E10E94C4
:102560001E170E94A5120E94A612089581E00895E8
:102570000E94B61208950E94B61208950895089513
:102580000E94BE120E94BF1208950E9493150E94DD
:1025900061080E944B2308950E9449270E947216E9
:1025A0000E94C5120E94A5210E9410200E94AA121A
:1025B0000895A6E0B0E0EFEDF2E10C94012F0E9447
:1025C000B81281110EC00E946D120E9466200E94F6
:1025D0004A230E94B9180E9476082696EEE00C94D1
:1025E0001D2F0E94881622EA822E22E0922E64017C
:1025F00010E0F601E190F1906F01812F0E94B91572
:102600001F5F163009F44BC0E816F90691F380916C
:10261000B60281FD0E94C2150E94BB12782E10E006
:1026200066246394812F0E94B9157C01F401A19066
:10263000B1904F018A159B0561F100E0CC24C39451
:10264000D12CAE24BF24C5018C219D21892BC1F042
:102650007720B1F009831A830E9452279C838B83D1
:102660006D8221E0C7018C219D21892B09F420E096
:1026700049815A816B817C818D81922F0E948F08C4
:102680000F5FCC0CDD1C0031F1F6F4013297F182C2
:10269000E0821F5F163031F60E94911296CFE81645
:1026A000F90609F0B4CF8FCF1F93CF93DF930E9429
:1026B0008314EC01C11580E5D807F0F5C11580E45D
:1026C000D80708F09CC0C03ED10520F5CD3CD1050F
:1026D00008F082C0C83AD10578F4C53AD10508F0AF
:1026E00073C0C130D10519F1209709F1C430D1056B
:1026F000F0F4D0E0C0E01BC0C33CD105D0F7C85A0D
:10270000D0E0CC0FDD1FCD59DE4F0990D881C02D10
:10271000D4640DC0C11580E2D80708F0D1C0C1153E
:1027200081E0D80708F05AC0C83ED10510F7CE01A5
:10273000DF91CF911F910895C03682E5D80718F533
:10274000C03482E5D80708F06BC0C03282E5D807F4
:1027500008F05FC0C11582E5D80708F497C02C2F98
:102760002695269580E2289F900111248C2F837056
:10277000C1E0D0E002C0CC0FDD1F8A95E2F7C22B8A
:10278000D32BDD68D4CFC03A82E5D80760F4C038D7
:1027900082E5D80708F459C0CF71D0E0DC2FCC27F0
:1027A000C46FD06AC4CFC03C82E5D80708F462C0C9
:1027B000C03E82E5D80708F09CCFDC2FCC27CC2781
:1027C000DF71C06FD06AB3CFC55AD0E0C756DE4FB5
:1027D000C881D0E0D064ABCFD065A9CF8D2F0E9447
:1027E0002515182FCE0199270E948314C12FD0E000
:1027F000DC2FCC27CC27DF71C82BD92B98CFCE016B
:1028000099270E948314CC27DF70C82BD92BD06A5C
:102810008ECFCF71D0E0DC2FCC27C16FD06A87CFAD
:102820002C2F26952695277080E2289F9001112451
:102830008C2F8370C1E0D0E002C0CC0FDD1F8A95E1
:10284000E2F7C22BD32BDC6872CF2C2F269526956E
:10285000277080E2289F900111248C2F8370C1E0A3
:10286000D0E002C0CC0FDD1F8A95E2F7C22BD32B3C
:10287000DA685DCF8C2F8F710E942515C82FD0E0AC
:10288000DC2FCC27CC27DF71D06251CF8C2F8F71FA
:102890000E94251555E0D695C7955A95E1F7CF705A
:1028A000D0E0DC2FCC27282F30E084FF05C044E0A7
:1028B000220F331F4A95E1F7C22BD32BD06937CFB4
:1028C0008D2F8F710E942515182FCE0199270E94F8
:1028D0008314C12FD0E0DC2FCC27CC27DF71C82B8D
:1028E000D92BD2CF462F763030F4603120F4672FC9
:1028F0000E945607089590E080E008950E947214A7
:102900000E945413089582389105B9F1B0F48133CF
:10291000910509F47DC048F48932910509F46DC030
:102920008A32910509F47BC008958533910509F435
:102930005FC08933910509F10895833E9105D9F16E
:1029400038F4803E910529F1823E910579F1089590
:10295000863E9105D9F1873E910509F43EC0843E3B
:10296000910541F52091540321FF24C08091530328
:1029700084FD19C087EE90E00895209153032370E1
:1029800009F05AC02091540323FF14C089E290E05B
:1029900008952091530320FD38C03091540330FF37
:1029A00009C024FF43C090E080E0089520915303C4
:1029B00022FDF7CF08952091530322FD3AC03091B4
:1029C000540330FD39C024FFF5CFEDCF20915303E0
:1029D00023FFF0CF24FDE7CFCDCF2091530323FD7C
:1029E0002EC03091540331FFEECF84EE90E0089575
:1029F0002091530325FFDECFC9CF2091530325FD3E
:102A000021C02091540323FFD5CF89E390E0D2CF9A
:102A10002091530326FFCECF8AE290E008952091C3
:102A2000530326FFC7CF81E390E0089583EE90E043
:102A3000089582EE90E0089580EE90E0089586EE8D
:102A400090E0089585E390E008959091530392FFFC
:102A500010C041E0282F2471243009F040E031E01B
:102A6000282F2871283009F030E0431711F02CE0AE
:102A7000822793FF10C041E0282F2471243109F0F0
:102A800040E031E0282F2871283109F030E0431769
:102A900011F02CE082273091540330FF10C051E038
:102AA000282F2171213009F050E041E0282F2871B2
:102AB000283009F040E0541711F029E0822731FF57
:102AC00010C041E0282F2171213109F040E031E0B0
:102AD000282F2871283109F030E0431711F029E040
:102AE000822794FD877E089580E008950E94BF119B
:102AF00008950E9488162FEF86E791E021508040CC
:102B00009040E1F700C000000E94881680E00E941B
:102B1000B91580FF04C00E9476150E949D27089574
:102B20000E94791508950E94C611811102C00E9469
:102B300064120E94D1118093B6020E94DB1190931F
:102B40005403809353030E9490150E94D61190E085
:102B50000E94800C80911602909117020E94A10C95
:102B6000089508950E94B115089508950E94B5151D
:102B70000895E82FF0E0EE0FFF1FEF59FC4F808122
:102B800091810895089580EA8A95F1F7089500C02B
:102B900008950E94C3150895F894E82FE295EF7008
:102BA000F0E031A1282F2F7081E090E001C0880F64
:102BB0002A95EAF7982F9095932391A392A1892BB8
:102BC00082A3789408950F931F93CF93DF93CCEA59
:102BD000D1E089918F3F11F00E94CC1581E0C23B7A
:102BE000D807B9F7CCE9D1E00CEA11E089918F3F21
:102BF00011F00E94CC150C171D07C1F7DF91CF9182
:102C00001F910F910895AF92BF92DF92EF92FF92C2
:102C10000F931F93CF93DF938C01D62EC62FD0E056
:102C2000CE0184559E4F7C01FC0120812F3F09F489
:102C30004CC0F894E22FE295EF70F0E031A12F70D4
:102C400081E090E001C0880F2A95EAF7932F982B36
:102C500091A392A18095892382A378940E94C7159D
:102C6000ECE9F1E041E050E0B12CA12C21912F3FA3
:102C7000B1F1A22FA295AF70B0E090968C9190E048
:102C80002F7002C0959587952A95E2F780FD27C0A1
:102C9000CA01A82AB92A440F551F81E0EC3AF80767
:102CA00029F7F70180818F3F11F00E94CC1561E078
:102CB000A114B10409F460E08D2D0E94C915CC0F58
:102CC000DD1FC00FD11FB982A882DF91CF911F9164
:102CD0000F91FF90EF90DF90BF90AF90089590E03C
:102CE00080E0D7CF0E94E3158CE0E1E6F3E0DF015E
:102CF000982F1D929A95E9F7E5E5F3E0DF011D9223
:102D00008A95E9F786E00E94C3160E94B2150895DD
:102D1000ACE0B0E0EEE8F6E10C940A2F8E010F5F14
:102D20001F4F8CE0F80111928A95E9F7F12C6F2D75
:102D3000C8010E940316F394F6E0FF12F8CF4CE0AE
:102D400050E0B80185E593E00E94D32F21E0009781
:102D500009F420E0892B41F08CE0F801A5E5B3E00F
:102D600001900D928A95E1F746E061E673E085E512
:102D700093E00E94C416182F0E94B615812F2C963E
:102D8000E5E00C94262F0895CF92DF92EF92FF9208
:102D90001F93CF93DF936C017B01C42F222349F053
:102DA00081E08093B9020E9452279093B8028093E9
:102DB000B7021091B90211110AC010E0812FDF9102
:102DC000CF911F91FF90EF90DF90CF900895809169
:102DD000B7029091B8020E946A27059770F3D0E07D
:102DE000CC0FDD1FAE01B601C7010E94D32F892B86
:102DF00041F0AE01B601C7010E94E02F1092B90266
:102E0000DDCF10E0FBCF0E9436290E94CC120E9439
:102E1000432908950E9448290E94D9120E946229DC
:102E200008950E94EB260E941C290E94AD120E9468
:102E300003170E940A170E94C012FBCF9093DF0174
:102E40008093DE010895282F35EB2303C001112460
:102E500097FF04C080589109892F089580589F4F8B
:102E6000FBCF8091C00280FF0DC060910B0170E02C
:102E7000660F771F6038710570F56115710569F18E
:102E8000862F089581FF07C060910B0184E0689F41
:102E9000B0011124EFCF60910B0182FD0AC0809137
:102EA000BF028823A9F020910A0160910B018217CB
:102EB00010F088E0ECCF869FC001112433E0880F2A
:102EC000991F3A95E1F7622F70E00E94902ED2CFC1
:102ED00068E070E0D5CF8FE7089581E00895809194
:102EE000C00280FF0CC06091070170E07595679586
:102EF000759567956115710549F1862F089581FFD4
:102F000006C06091070170E075956795F3CF6091F9
:102F1000070182FD0BC09091BE029923A1F0609140
:102F2000060180910701961738F0682F70E060382D
:102F3000710500F38FE70895899FC001112470E0A7
:102F40000E94902EF4CF61E070E0D7CF81E0089529
:102F50008D3C31F40E94311781958093C40208950D
:102F60008E3C19F40E943117F8CF8F3C31F40E9447
:102F7000311781958093C3020895803D19F40E9412
:102F80003117F8CF893D29F40E946F178093C5024D
:102F900008958A3D21F40E946F178195F7CF8B3DEC
:102FA00031F40E946F1781958093C60208958C3D7D
:102FB00019F40E946F17F8CF9FE2980F983070F4C1
:102FC000815D990B21E030E001C0220F8A95EAF77C
:102FD0008091C202822B8093C20208958D3D31F40C
:102FE0008091C00281608093C00208958E3D21F4DB
:102FF0008091C0028260F7CF8F3DB9F78091C00207
:103000008460F1CF4091C3028D3C59F48091C40299
:1030100087FF0DC01092C40241110BC01092BF0275
:1030200008C08E3C81F48091C40218169CF344239E
:1030300081F08091C5029091C602892B09F05AC097
:103040001092BE0208958F3C49F447FFF0CF1092D2
:10305000C3028091C4028111ECCFE0CF803D19F40E
:103060001416ACF3E4CF9091C502893D29F41916EA
:10307000F4F61092C502DBCF8A3D19F497FFD7CF43
:10308000F8CF9091C6028B3D29F497FFD0CF1092D4
:10309000C602CDCF8C3D19F41916CCF3C8CF9FE2F0
:1030A000980F983090F4815D990B21E030E0B901E0
:1030B00002C0660F771F8A95E2F7CB018095909149
:1030C000C20289238093C202B2CF8D3D31F4809138
:1030D000C0028E7F8093C002AACF8E3D21F48091E2
:1030E000C0028D7FF7CF8F3D09F0A1CF8091C00244
:1030F0008B7FF0CF08950E9452279C019091C302CC
:103100008091C402982B21F03093BD022093BC0221
:103110009091C5028091C602982B21F03093BB029A
:103120002093BA0281EC92E00E946525089586E022
:10313000E1ECF2E0DF011D928A95E9F71092BF02FF
:103140001092BE021092C0020895FC01828181118A
:103150000EC0838181110BC08481811108C091E070
:103160008581811101C090E0892F8170089581E0EF
:10317000FCCFA6E0B0E0EFEBF8E10C940C2F86E07A
:10318000E1ECF2E0DE01119601900D928A95E1F7F3
:103190001092C3021092C4021092C5021092C6028D
:1031A0008B819C81892B89F08091BC029091BD021A
:1031B0000E946A27AC019091BF029923C9F18091C6
:1031C0000C018417150608F440C08D819E81892B5F
:1031D00091F08091BA029091BB020E946A27AC01E3
:1031E0009091BE02992309F46AC080910801841766
:1031F000150608F472C0BE016F5F7F4F81EC92E04C
:103200000E947F26811105C081EC92E00E94A518E2
:1032100081110E947B1886E0FE013196A1ECB2E09C
:1032200001900D928A95E1F72696E3E00C94282F01
:1032300020910D018AE0289F900111242417350761
:1032400020F69F5F9093BF0202C09F3FD1F71B8182
:10325000112359F00E9431179FEF11160CF491E0E1
:10326000899F802D11248093C3021C81112359F062
:103270000E9431179FEF11160CF491E0899F802D69
:1032800011248093C4028091C302882309F49DCF46
:103290001091C402112309F498CF0E9423178823A8
:1032A00051F08093C302812F0E942317882329F0B5
:1032B0008093C4028ACF81E0F4CF81E0F9CF2091DE
:1032C00009018AE0289F900111242417350708F08E
:1032D00092CF9F5F9093BE0202C09F3FD1F71D81A6
:1032E000112359F00E946F179FEF11160CF491E013
:1032F000899F802D11248093C5021E81112359F0CE
:103300000E946F179FEF11160CF491E0899F802D9A
:1033100011248093C6028091C502882309F46BCFE3
:103320001091C602112309F466CF0E942317882347
:1033300051F08093C502812F0E942317882329F022
:103340008093C60258CF81E0F4CF81E0F9CFEF92AD
:10335000FF920F931F93CF93DF93EB01E82FD111CF
:103360000EC0442321F0F0E0EA57F44FE4916E2FB1
:103370007E2F8E2FCDB7DEB7E6E00C94252F0D2FD4
:1033800010E0282F30E0442329F02A57344FF90168
:10339000249130E0F6E0CF9FC0011124EFEFF0E080
:1033A000BF010E947C2EAB018C2F90E0880F991FEB
:1033B000A5E5A49FB001A59F700D1124861B970B56
:1033C000982F990F980FBF01601B710B629FD0015E
:1033D000639FB00D729FB00D11248B2F9D9FB00184
:1033E0001124672F7727EF01C61BD70BBE01629F01
:1033F000E001639FD00D729FD00D11247F01E91A67
:10340000F108E09EB001E19E700DF09E700D112458
:10341000672F7727E61BF70BE29F8001E39F100DD4
:10342000F29F100D1124E12F722F4230510599F0B7
:1034300048F44115510569F04130510581F0EB2FF9
:103440008D2F07C04430510569F080F0463051059A
:10345000B1F76E2F8FCFE22F7B2F812FFACFE22F84
:103460007D2FF7CFEB2F822F712FF3CF7B2F822F62
:10347000ED2FEFCF41E00E94A719089508950E9413
:103480003A1A0895CF93DF93762FE901682F842F9E
:103490000E943F1A798368838A83DF91CF910895D0
:1034A00080916D03982F9E7F29F4817082608093B4
:1034B0006D0308958635E8F381708465F8CFB0E038
:1034C000A0E0E5E6FAE10C94072F88E090E00E9486
:1034D000F12F6B017C0184E290E00E94E92F282FFC
:1034E00030E040E050E060E070E080E090E000E23A
:1034F0000E94342FB22FA32FF42FE52FD62FC72FE2
:1035000097018601BC29A12BFE295E2F532B2B2F5F
:103510003A2F4F2F6D2F7C2FCDB7DEB7E8E00C94FC
:10352000232FB0E0A0E0E7E9FAE10C94032F490172
:103530005A016B017C010E94501A8401A4016A2D7A
:103540007B2D88E090E00E941F3094014A2D5B2D76
:10355000B601C70100E20E944F2F622F84E290E083
:103560000E940D30CDB7DEB7ECE00C941F2FEDE6D6
:10357000F3E083E0808311828FEF82838383148260
:10358000758123E030E04FEF5FEF60E08681978147
:103590000E94911A089580916D0380FF02C0869564
:1035A000089580E0089590917103933018F49F5F1F
:1035B00090937103882391F020916D0330916E03F5
:1035C00040916F0350917003609171037091720389
:1035D00080917303909174030E94911A089581E081
:1035E0000E94D31A089590917103992319F0915074
:1035F00090937103882391F020916D0330916E03B5
:1036000040916F0350917003609171037091720348
:1036100080917303909174030E94911A089581E040
:103620000E94F31A089570E00E945C23089560914F
:10363000120180916D0380FF0BC08091110123E086
:10364000829FC00111248B589C4F0E94131B089528
:10365000809113019091140123E0829FF0011124C5
:10366000EB58FC4F891748F71182108212828F5F46
:103670003396F8CF90916D0390FF0EC09091130197
:103680002091140133E0939FF0011124EB58FC4F7B
:10369000921718F00E94171B08958183608342835C
:1036A0009F5F3396F5CFA3E0B0E0E9E5FBE10C9432
:1036B0000D2F90916D0390FF0AC09E012F5F3F4F29
:1036C0000E94421A4B8169818A810E943A1B23968B
:1036D000E2E00C94292FCF93DF93EC01EC81F0E032
:1036E000EF57F54F4491EDE6F3E0628181810E944E
:1036F000531B8C818F5F8C83DF91CF910895CF9383
:10370000DF93EC01EDE6F3E0438162818C810E945E
:10371000531B8C818F5F8C83DF91CF910895A3E041
:10372000B0E0E5E9FBE10C940B2F8C018091C7021E
:1037300081110AC09E012F5F3F4F4FEF6FEF0E9434
:10374000421A8A818093C702F8016481613069F06E
:103750008091C70240E0662361F040E0623011F4DE
:103760004091C70280E060E004C06091C70240E081
:1037700080E00E943A1BF801848190E0019663E0AA
:1037800070E00E94902E84832396E4E00C94272F0F
:10379000A3E0B0E0EEECFBE10C94062F082FD62E50
:1037A000F42EC22E90916D0390FF2EC0E92FE69566
:1037B000AE2FB0E0AE54BE4F8C91809323039E7F1A
:1037C000923031F59E012F5F3F4F802F0E94421AA9
:1037D0004B8169818A810E943A1B00936E03D092CB
:1037E0006F03F0927003CC2079F020916D0360910B
:1037F000710370917203302F4D2D5F2D80917303F3
:10380000909174030E94911A2396E9E00C94222F60
:10381000823019F4F0907003E0CF863019F40091F3
:103820006E03DBCF8930D9F38931B9F6E9516E2FB8
:103830006170B62EE695F0E0EF57F44F1491E12C4D
:1038400060911501E61618F00E94171BC6CFE19E85
:10385000C001112470E00E947C2E802FB11014C092
:10386000860F20911301622F6E0D7727771F9B0122
:10387000220F331F260F371F2B583C4F4F2D6D2D16
:103880000E94421AE394DCCF861BEBCFEDE6F3E017
:103890009181282F4381628188E0890F0E94C81B93
:1038A000089581E00E94461C0895EDE6F3E09181C1
:1038B000282F4381628188EF890F0E94C81B0895D9
:1038C00081E00E94551C0895EDE6F3E0628128E056
:1038D000620F08F46FEF282F438181810E94C81B7B
:1038E000089581E00E94641C0895EDE6F3E0628192
:1038F00028E0621B08F460E0282F438181810E9448
:10390000C81B089581E00E94751C0895EDE6F3E060
:10391000438128E0420F08F44FEF282F6281818114
:103920000E94C81B089581E00E94861C0895EDE660
:10393000F3E0438128E0421B08F440E0282F628135
:1039400081810E94C81B089581E00E94971C089500
:1039500020E00E94C81B0895EF92FF921F93CF931F
:10396000DF93EC0110E0EE24EA94F12C6091150154
:10397000161770F00E94171B9A818C8190FF27C048
:103980008F5F8C83DF91CF911F91FF90EF9008950F
:1039900020911301422F410F5527551FCA019A014B
:1039A000220F331F280F391F2B583C4F70E0C701DF
:1039B0000E94902E962F8C814091700360916F032E
:1039C000199F800D11240E94421A1F5FCFCF815092
:1039D000D8CFB0E0A0E0EFEEFCE10C94062FFC01A4
:1039E00082810FEF80FF01E010E080911501181730
:1039F00098F00E94171B8091C902013009F04CC059
:103A0000811102C08091150181508093C902CDB708
:103A1000DEB7E9E00C94222FC0911301C12ED12C06
:103A2000CC0DDD2DD11DCE01880F991FC80FD91FD8
:103A3000CB58DC4F198218821A8234E0E32EF12C25
:103A4000B12C8091C9028B0D813104F18F70082E49
:103A5000000C990BC816D90691F4809170038E9DC5
:103A6000A0018F9D500D112455954795559547956B
:103A70009E0160916F0380916E030E94421AB00E06
:103A8000F1E0EF1AF108E9F61F5FAFCF87FFDFCF54
:103A900090911501890FDBCF90E00196609115019F
:103AA00070E00E94902EB1CF0F931F93CF93DF93BE
:103AB000809113019091140123E0829FF001112461
:103AC000EB58FC4F891740F1C0E0D3E0609115013D
:103AD000C61740F10E94171B20910F018091C80268
:103AE000820F8093C80290911001920F9093100161
:103AF000191654F4082E000C990B409115014150F1
:103B0000550B841795071CF0219520930F01DF9129
:103B1000CF911F910F9108951182108212828F5FB1
:103B20003396D0CF0C2F10E070E0C8010E94902E89
:103B300020911301820F482F50E02091C802022EDD
:103B4000000C330B02171307BCF020911001022E5A
:103B5000000C330B201731077CF08D9F900111244E
:103B60002B583C4F4091700360916F0380916E031E
:103B70000E94421ACF5FAACFFA01EE0FFF1FE40F97
:103B8000F51FEB58FC4F118210821282F3CFB0E088
:103B9000A0E0EDECFDE10C94032FEC014C81042F2F
:103BA00010E09801D8010E94D42E9B01AC010E9424
:103BB000EA2E4B015C01E0E2F0E0E01BF10BA5E531
:103BC000B0E0AC019B010E94EA2E6B017C019F01D9
:103BD000DF010E94CC2E9B01AC010E94F52E9B01BF
:103BE000AC01280D391D4A1D5B1DC701B6010E949D
:103BF000A42EF22E822F90E039E23F1520F143E00F
:103C0000249F9001112435952795122F109500E0DF
:103C100085E5E82EEF1880911501081718F10E942C
:103C2000171B9C8181E0992319F0903219F48FEFD2
:103C300080930E0180910E01890F8C83CDB7DEB782
:103C4000ECE00C941F2F25E530E0B901681B790BDF
:103C50009B01220F331F260F371F37FFD4CF2F5F53
:103C60003F4FD1CF8E2D01FD8F2D20911301622F5B
:103C7000600F7727771F9B01220F331F260F371FF7
:103C80002B583C4F412F60916F030E94421A0F5FE7
:103C9000C2CF0F931F93CF93DF93EC0110E000E0AE
:103CA000909115019017110609F06CF40E94171BF2
:103CB0008C8190E00196817099278C83DF91CF9160
:103CC0001F910F91089520911301A801420F511DDA
:103CD0009A01220F331F240F351F2B583C4F4C8164
:103CE00060916F0380916E0396959017110651F0C5
:103CF0004CF0442349F0409170030E94421A0F5F38
:103D00001F4FCECF4423B9F340E0F7CFB0E0A0E09F
:103D1000ECE8FEE10C94FF2EFC016280448081E01F
:103D20008483E1E8FAE07490E0E0FBE0E491C09184
:103D30007003C695C158D0E0CC0FDD1FCD2FDD2715
:103D4000812C75E0972EAA24AA94B12C55245A945C
:103D5000E719EE2EF12C80911501881638F00E949B
:103D6000171BCDB7DEB7E0E10C941B2FC82CD12C6C
:103D700082E0861568F09C9CF0019D9CF00D11245A
:103D8000E653FD4F80916E03808380916F038183A2
:103D9000411023C09C9CF0019D9CF00D1124E65322
:103DA000FD4F1382128220911301C601820F911DD3
:103DB0009C01220F331F280F391F2B583C4F9C9C0E
:103DC000F0019D9CF00D1124E653FD4F428161816D
:103DD00080810E94421A8394BECF9C9C80019D9C4E
:103DE000100D112406531D4FF80183818823F1F033
:103DF00081508383859DC0011124648170E00E94FD
:103E00007C2EFB01FF27EF57F54F8491E82FE71930
:103E1000E59DC0011124B7010E947C2E80917003A2
:103E2000689FB0011124F8017283BDCF0E94B62FA4
:103E3000B5010E94902E8C179D070CF0B4CFF2E0D4
:103E4000F61598F40E94B62FB5010E94902EF80145
:103E500080830E94B62F20916F032695622F70E019
:103E60000E94902E280FF80121839C9CF0019D9CBC
:103E7000F00D1124E653FD4F128280917003893CAE
:103E800058F088EC9C9CF0019D9CF00D1124E653A9
:103E9000FD4F8483838387CF8431A0F784E1F2CF01
:103EA000EDE6F3E020812E7F208331814281538132
:103EB00064817581868197810E94911A10922403F2
:103EC0000E94171B0895EDE6F3E080818E7F8083CA
:103ED000109224030E94171B0895109224038091CE
:103EE000210381110AC081E08093210380916D0339
:103EF0008170809320030E94631F089560916D0379
:103F0000669570E04BE050E086E191E00E94C62F9C
:103F1000892B19F481E0809324030E945227909307
:103F20001B0380931A03089590916D0390FF33C093
:103F30009170811131C0926090936D03662391F06E
:103F400020916D0330916E0340916F035091700387
:103F50006091710370917203809173039091740367
:103F60000E94911A60916D03669570E04BE050E0FD
:103F700086E191E00E94C62F892BA9F010922403BC
:103F800081E080931D034091700360916F038091E5
:103F90006E030E94A81C08958B3210F09465CCCF5C
:103FA000880F982BC9CF0E947E1FEACF682F90916F
:103FB0006D03969581E0890F8B3208F081E00E94B5
:103FC000941F089581E00E94D61F0895682F909154
:103FD0006D0396958FEF890F09F48AE20E94941F72
:103FE000089581E00E94E61F089561E00E94941FF9
:103FF0000895EDE6F3E080818160808386950E94DC
:10400000F51F089580916D0380FF03C00E94501F2B
:1040100008950E94F91F089560E00E94941F08957A
:104020008091220381113EC00E94C611811104C0FB
:104030000E9464120E94B71A0E945F1A20936D03B7
:1040400030936E0340936F0350937003609371033A
:104050007093720380937303909374032E7FA1F483
:104060000E94B71A0E945F1A20936D0330936E036B
:1040700040936F03509370036093710370937203C6
:1040800080937303909374030E94501A1092240338
:1040900080916D0380FF03C086950E940C2081E013
:1040A000809322030895EDE6F3E0808181608083B0
:1040B00086950E940C200895109221038091200380
:1040C00081110E9453200E947E1F08950F931F9319
:1040D000CF93DF93809124038823B9F18091230348
:1040E000E0916D03E695E81BE0931C03823091F5A7
:1040F000F0E0E358F54FE491CE2FD0E00BE61BE162
:1041000080911D03882361F010921D030E945227A5
:1041100090931B0380931A0310921F0310921E03A7
:104120000E945227E0911A03F0911B038E1B9F0BF4
:104130008F3F9F4750F4EC0FFD1FF0931B03E0935C
:104140001A038AE193E0F8010995DF91CF911F915D
:104150000F910895863049F4F0E0E658F54FE49168
:10416000CE2FD0E00FE71BE1CBCF893051F4E6959D
:10417000F0E0E958F54FE491CE2FD0E00CEA1CE1D5
:10418000BFCF8F3051F4E695F0E0EC58F54FE49155
:10419000CE2FD0E009EE1CE1B3CF853149F4F0E039
:1041A000EF58F54FE491CE2FD0E004E51DE1A8CF04
:1041B000C8E2D0E007EC1DE1883109F4A1CF8332D9
:1041C00039F4EFE6FAE0C591D4910FE81BE198CFFE
:1041D000C4EFD1E009E41EE1843209F491CFC0EDCF
:1041E000D7E00EE31AE1853209F08ACF8E2F63E023
:1041F0000E94702EE92FF0E0E459F54FE491CE2FA4
:10420000D0E006E81EE17CCFFA01811101C0FB017C
:1042100009950895CF93DF93C82FD62F0E94CB1A0C
:104220008C1748F00E94CB1A8D1728F40E94E21FC9
:10423000DF91CF9108958C2F0E94F51FF9CF1F9326
:10424000CF93DF93EC01FB011581111110C00E9487
:10425000C5108272FE01E052F847E531F10508F021
:104260005EC0E259FF4C0C94C62E0E940220812FA2
:10427000DF91CF911F91089541EF5FE162EE7FE101
:104280000E940421F4CF42EE5FE161EF7FE1F8CFBD
:1042900040E65CE161E57CE1F3CF41E55CE160E6AD
:1042A0007CE1EECF42E85CE161E77CE1E9CF41E708
:1042B0005CE162E87CE1E4CF44EA5CE163E97CE153
:1042C000DFCF43E95CE164EA7CE1DACF4FE05BE118
:1042D0006FEE7AE1D5CF4FEE5AE16FE07BE1D0CFC0
:1042E00081E00E94F51FC3CF65E082E00E940A21B1
:1042F000BECF68E086E0FACF6EE089E0F7CF64E1F8
:104300008FE0F4CF67E185E1F1CF88E1EACF62E2A7
:1043100089E1ECCF83E2E5CF6AE285E2E7CF11E005
:10432000A6CF86E090E00E94E92F0895682F86E0EE
:1043300090E00E940D300895E5EAF3E080818470FA
:10434000896280830E94962108950E94C61181117E
:1043500004C00E9464120E949C210E9491218093BB
:10436000A503803320F0877088628093A503909125
:10437000A503892F817090FF04C0892F86958695AB
:1043800086950E94A92208958091A503982F96955D
:1043900096959695953040F49F5F990F990F990FD8
:1043A0008770892B8093A5038091A50381608093FA
:1043B000A5030E9496218091A503869586958695F2
:1043C0000E94A92208958091A503982F987F79F0E3
:1043D00088508093A503887F91E009F490E0809154
:1043E000A50390FB80F98093A5030E9496218091FC
:1043F000A5038695869586950E94A92208958091A9
:10440000A50380FD13C081608093A503813019F45A
:1044100089E08093A5038091A5030E949621809155
:10442000A5038695869586950E94A9220895809178
:10443000A50380FF08C08E7F8093A5030E9496216C
:1044400080E00E94A92208958091A50380FF03C007
:104450000E94172208950E94FF2108959091A503BC
:10446000892F8695869586958F5F8F719770863098
:10447000E0F4880F880F880F892B8093A503809123
:10448000A503887F91E009F490E08091A50390FB5B
:1044900080F98093A5030E9496218091A5038695BB
:1044A000869586950E94A92208959093A503E7CF4B
:1044B000863008F085E09091A5039770282F220F91
:1044C000220F220F922B9093A503987F21E009F4ED
:1044D00020E09091A50320FB90F99093A5030E9402
:1044E000A92208950E9458228091A5030E94962136
:1044F00008959C01FB018581882349F12230F8E76A
:104500003F07F9F040F42115E8E73E0769F0213054
:10451000384779F00895243098E7390779F058F052
:104520002530384789F0089585E00E94722280E0A6
:10453000089580E0FACF0E94E321F9CF0E94C421C0
:10454000F6CF0E942422F3CF0E942E22F0CF81E0EA
:1045500008958F929F92AF92BF92EF92FF920F9326
:104560001F93CF93DF938630B0F5811135C09091C2
:1045700080009F7D90938000A0918600B09187007D
:10458000282F30E00E94D42E25E030E040E050E0BB
:104590000E94A42E89019A01809186009091870043
:1045A0006CE070E00E947C2E60177107C8F0C801B3
:1045B00069E070E00E947C2E70938B0060938A000B
:1045C000DF91CF911F910F91FF90EF90BF90AF902F
:1045D0009F908F90089585E0909180009062CACF5F
:1045E0008091860090918700E0908600F09087008F
:1045F000E0918600F0918700C6E0D0E0BE010E9405
:104600007C2E060F171F211D311D4801590185E021
:10461000880C991CAA1CBB1C8A95D1F7C701BE0146
:104620000E947C2E9F0150E040E0260F371F411D65
:10463000511DC501B4010E94A42E49015A01E09107
:104640008600F0918700CA01B9010E94602E9B018B
:10465000AC01DF010E94EA2E9B01AC01C501B4014F
:104660000E94602E2FE096958795779567952A95FD
:10467000D1F7009186001091870030E020E0061706
:1046800017072807390708F097CF609186007091C7
:10469000870092CF0895269A2E9882E28093800018
:1046A00089E1809381008FEF9FEF90938700809343
:1046B00086000E94A52108956A9A4EB14B7F5EB193
:1046C0005460EFB7F8949B01220F331F260F371F5A
:1046D000280F391F2817390741F4EFBF8FE594E001
:1046E0000197F1F700C000000895DC016D91CD0144
:1046F00078E05EB9000000C067FF4EB9660F0000A9
:1047000000C000C000C04EB900C07A9591F7E2CF5A
:10471000CF93DF93EC01FB018581882309F4D2C09C
:104720009E0130572332310508F0B2C00E94DB11E0
:104730009093540380935303FE01E150F047E2321B
:10474000F10520F4ED57FF4C0C94C62E80915303D5
:1047500081608093530393C0809154038860809359
:1047600054038DC0809153038260F3CF8091530333
:104770008460EFCF809153038860EBCF8091540326
:104780008160EDCF809154038260E9CF8091530323
:104790008061DFCF809153038062DBCF8091530330
:1047A0008064D7CF0E94330C809153038068D1CFAF
:1047B000809153038C60CDCF809154038360CFCF21
:1047C000809153038E7FC5CF80915403877FC7CFDD
:1047D000809153038D7FBDCF809153038B7FB9CFE1
:1047E00080915303877FB5CF809154038E7FB7CFDD
:1047F000809154038D7FB3CF809153038F7EA9CFD7
:10480000809153038F7DA5CF809153038F7BA1CFE0
:104810000E94330C809153038F779BCF8091530379
:10482000837F97CF809154038C7F99CF80915303DE
:1048300082FB992790F921E0922790FB82F990FB67
:1048400083F987CF80915403982F909591708E7F34
:10485000892B90FB81F983CF90915303892F8F7B14
:1048600096FF806476CF0E94330C90915303892F7A
:1048700097FB87F980586DCF81E00E946712809185
:104880005303909154030E94E0110E94330C80E086
:10489000DF91CF91089580E0F0CF90915303892F5D
:1048A0008F7E94FF806155CF90915303892F8E7F27
:1048B00090FF81604ECF90915403892F877F93FFA3
:1048C00088604DCF81E0E4CFCF93DF93EB01863159
:1048D0009C4711F50E94C5109D81992399F08A7A11
:1048E00091E009F490E090932503811109C089E2D9
:1048F0000E949D100E941E1180E0DF91CF910895CB
:1049000085E3F6CF80912503811104C089E20E94DE
:10491000A510F0CF85E3FBCF81E0EFCF0F931F937E
:10492000CF93DF93C42FD22FFC0185818823C9F058
:10493000409328030E9452279093270380932603D5
:1049400080E28C0F883040F4C77081E001C0880F8E
:10495000CA95EAF70E94DF09DF91CF911F910F916D
:10496000089510912803141332C08091260390916A
:1049700027030E946A27883C910548F5C0E2CD0FC5
:104980001D17B9F080E2810F883040F4177081E084
:1049900001C0880F1A95EAF70E94E609C83048F46A
:1049A00081E09D2F977001C0880F9A95EAF70E94C9
:1049B000DF09802F0E94D609C83070F6D77081E0D9
:1049C00001C0880FDA95EAF70E94E609C5CF80E2B8
:1049D0008C0F883008F6C77081E001C0880FCA9537
:1049E000EAF7F2CF0F93DB0188519C47873091059E
:1049F000A0F5FC01EB55FF4C0C94C62E06E221EE0F
:104A000041EE6AE17CE7CD010E948E2480E00F91A7
:104A1000089507E225EE45EE6BE17CE7F4CF06E270
:104A200021EE40EE68E17CE7EECF07E225EE44EEB2
:104A300069E17CE7E8CF06E221EE42EE6CE17CE73B
:104A4000E2CF07E225EE46EE6DE17CE7DCCF08E23F
:104A500021E045EE6EE17CE7D6CF15968C91882358
:104A600019F010922803D3CF81E0D1CF90932E0379
:104A700080932D030895E0912D03F0912E0330973C
:104A800029F00190F081E02D0995089580E00895C6
:104A90000E943B250895E0912D03F0912E0330975D
:104AA00099F020912901222359F02091530327FFE7
:104AB00007C0DC012C9111962C93119726E02C93C2
:104AC0000280F381E02D09950895E0912D03F09186
:104AD0002E03309739F022E0DC012C930480F5811D
:104AE000E02D09950895A3E0B0E0E9E7F5E20C9424
:104AF0000D2F20912B0330912C0328173907A1F09B
:104B000090932C0380932B03E0912D03F0912E03BF
:104B1000309751F023E029839B838A830680F781B5
:104B2000E02DCE01019609952396E2E00C94292F01
:104B3000A3E0B0E0EEE9F5E20C940D2F20912903FB
:104B400030912A0328173907A1F090932A03809304
:104B50002903E0912D03F0912E03309751F024E0CA
:104B600029839B838A830680F781E02DCE010196FD
:104B700009952396E2E00C94292FFC01329680914E
:104B80002901882321F0809153039EE187FF96E05D
:104B900080E0915008F4089521912223D1F38F5F92
:104BA000F8CF662301F1209129012223F1F0209111
:104BB000530327FF1AC0462F4695469546954E311A
:104BC00090F4677021E030E002C0220F331F6A9535
:104BD000E2F7840F911DFC01828190E028233923A4
:104BE00081E0232B69F480E00895FC013296089659
:104BF0002191261721F0E817F907D1F7F4CF81E0CA
:104C000008959C01FC0132969FEF80E04191461788
:104C100051F09F3F19F4411101C0982F8F5F8630EA
:104C2000A9F79F3F09F40895290F311D97FD3A9583
:104C3000F90162830895FC013296089621912613AA
:104C400003C0DF0111971C92E817F907B9F708951F
:104C5000E62FE695E695E695EE3168F4E80FF92F34
:104C6000F11D677021E030E001C0220F6A95EAF77C
:104C70008281822B82830895E62FE695E695E6955C
:104C8000EE3170F4E80FF92FF11D677021E030E08C
:104C900001C0220F6A95EAF720958281282322839A
:104CA000089520912901222339F02091530327FFF1
:104CB00003C00E94282608950E940126089520918D
:104CC0002901222339F02091530327FF03C00E94BA
:104CD0003C2608950E941B260895FC01329680917F
:104CE0002901882351F08091530387FF06C08EE18C
:104CF000DF011D928A95E9F7089586E0F9CFDC017E
:104D0000FB0111969C9111978181981322C01296F4
:104D10008C911297882319F0928189131AC01396E7
:104D20008C911397882319F09381891312C01596DB
:104D30008C911597882319F0958189130AC01496D0
:104D40009C91992321F081E02481291303C080E004
:104D500001C081E08170089508950E94AC260895F5
:104D6000811106C081E080932F030E94AD26089533
:104D700082E0F9CF83E080932F030E94AD2608954F
:104D80000E94B026089581E080932F030E94AD26F3
:104D900008950E94C3260895089508950E94CD267F
:104DA0000895089508950E94CC260895CF930E94F7
:104DB000D1260E9488160E94D226C0E08C2F0E9425
:104DC000B915892B31F4CF5FC630C1F780E0CF91A0
:104DD000089581E0FCCF85B7806885BF85B780687E
:104DE00085BF08951F921FB61F9211248F939F9322
:104DF000AF93BF9380913003811113C08091A603BC
:104E00009091A703A091A803B091A9034196A11D79
:104E1000B11D8093A6039093A703A093A803B0931A
:104E2000A903BF91AF919F918F911F901FBE1F90BB
:104E300018958091AE03843031F10E9436081092AB
:104E4000300388E190E020E40FB6F894A8958093B1
:104E500060000FBE2093600083B7817F846083BFB2
:104E600083B7816083BF7894889583B78E7F83BF33
:104E70000FB6F894A89580916000886180936000D7
:104E8000109260000FBE08950E94330C0E944008EB
:104E9000089582E084BD93E095BD9AEF97BD80931D
:104EA0006E0008952FB7F8948091A6039091A70300
:104EB000A091A803B091A9032FBF08952FB7F8942C
:104EC0006091A6037091A7038091A8039091A90314
:104ED0002FBF08959C014FB7F8948091A60390913D
:104EE000A703A091A803B091A9034FBF821B930B06
:104EF000089578941F921FB61F9211248F939F9349
:104F0000AF93BF938091A6039091A703A091A803AC
:104F1000B091A9030196A11DB11D8093A6039093A2
:104F2000A703A093A803B093A903BF91AF919F914A
:104F30008F911F901FBE1F90189581E08093E00015
:104F400080E28093D8001092C9008FE19EE401971F
:104F5000F1F700C0000087E090EBDC018093B7031D
:104F60009093B803A093B903B093BA0388E19CE08F
:104F70000FB6F894A895809360000FBE90936000E0
:104F8000FFCF88E19CE00FB6F894A895809360006D
:104F90000FBE90936000FFCF8091510308959B0155
:104FA000BA019091AE039430E9F48F708093E900D8
:104FB0009FEF8091E800915085FD06C085ED8A95B0
:104FC000F1F700009111F5CF8091E80085FF0AC04C
:104FD00050E040E0C9010E94D9298091E8008E7715
:104FE0008093E800089543E050E0BC0182E00E9415
:104FF000CF27089546E050E0BC0182E00E94CF2711
:105000000895CF93DF93EC0180912901811111C0A4
:1050100048E050E0BE0181E00E94CF2780E2FE011F
:10502000A1E3B3E001900D928A95E1F7DF91CF9172
:1050300008958091530387FF05C040E282E050E06D
:10504000BE01EACF48E081E0FACF8091AD03811143
:1050500009C00E94692B0E94C62B8091E2008460E7
:105060008093E20008951092AD0308950E94C32634
:1050700008956091AA0381E0611101C080E00E945F
:10508000BA2608959091AE0381E0943009F080E053
:105090006091AA030E94C026089542E061EC81E07D
:1050A0000E94E52A42E261EC82E00E94E52A9091AA
:1050B000AE0381E0943009F080E06091AA030E9481
:1050C000B02608958091B003833009F461C030F4B4
:1050D0008130D1F1823009F49EC008958A3009F4FC
:1050E0008AC08B3009F46FC0893009F050C08091BC
:1050F000AF03813209F04BC08091B3039091B403A8
:10510000029708F044C08091E800877F8093E80010
:105110008091E80082FF37C09091F3008091F20007
:10512000029731F48091F100813011F0863021F442
:105130008091F100809351038091E8008B778093F8
:10514000E8000E94192B23C08091AF03813AF9F443
:105150008091E800877F8093E8008091B30390916D
:10516000B403892B61F460E281E393E070E00E9474
:10517000282A8091E8008B778093E800089560E00A
:1051800090E080E0F3CF8091AE038111C1CF08950C
:105190008091AF03813AD9F78091B3039091B40322
:1051A000892BA9F78091E800877F8093E8008091A0
:1051B000E80080FFFCCF809129018093F10080916D
:1051C000E8008E77BCCF8091AF03813201F78091E8
:1051D000B3039091B403892BD1F68091E800877FC7
:1051E0008093E8000E94192B8091B10380932901DC
:1051F0000E94330C08958091AF03813241F6809173
:10520000E800877F8093E8000E94192B8091B20309
:105210008093520308958091AF03813A09F0B7CF8C
:105220008091E800877F8093E8008091E80080FF0C
:10523000FCCF80915203C1CF84B7877F84BF0FB664
:10524000F894A89580916000886180936000109226
:1052500060000FBE80E890E00FB6F8948093610084
:10526000909361000FBE0E94C92608950E94692B89
:105270000E94C62BE2EEF0E0808184608083789407
:105280000E94452E089581E291E00E9436250895FE
:105290008091AE03853031F48091AE03853019F0F2
:1052A0000E94442708950E9419278091AC03882307
:1052B00099F30E94D626882379F30E94C3290E947D
:1052C000330CEACF08959A014091B5035091B6038B
:1052D0000E946B290895492F55274330510519F134
:1052E00068F44130510509F444C04230510509F4D5
:1052F00045C090E080E050E040E025C041325105DB
:1053000049F142325105A9F784E490E047EB5DE0B2
:1053100061157105C1F086EB90E041E05DE0613020
:10532000710589F0E6CF99278130910581F00097CA
:1053300029F00297F1F6E6E8FCE002C0E0EBFCE0C1
:10534000849190E0AF01F901518340830895EEE923
:10535000FCE0F6CF89E090E046EC5CE06115710579
:1053600091F389E090E04FED5CE06130710559F315
:10537000C0CF82E190E04FEE5CE0E5CF8BE390E0C0
:1053800044EB5CE0E0CF80E189BD82E189BD09B4F6
:1053900000FEFDCF8091D8008F7D8093D800809152
:1053A000E00082608093E0008091E00081FDFCCF0E
:1053B0000895AF92BF92CF92DF92FF920F931F9307
:1053C000CF93DF936C01EB018A010E94382BF82EFA
:1053D000811123C00115110539F0F80180819181F7
:1053E000C81BD90BC80ED91EB12CA12C2097A9F02F
:1053F0008091E80085FD22C08091E8008E7780933F
:10540000E80001151105A1F0F80180819181A80E35
:10541000B91EB182A08285E0F82E8F2DDF91CF9149
:105420001F910F91FF90DF90CF90BF90AF900895A4
:105430000E94382B8823D1F2F82EEFCFF60181910C
:105440006F018093F1002197FFEFAF1ABF0ACECF13
:10545000FC018091B5039091B60386179707A0F0E1
:105460006115710529F49091E8009E779093E8000A
:1054700090E06115710551F4911108C08091E80028
:1054800082FF34C080E00895BC01F2CF8091AE036A
:105490008823C1F18530C1F18091E80083FD30C0DF
:1054A0008091E80082FDEACF8091E80080FFE1CFA3
:1054B0008091F3002091F200382F6115710519F0E9
:1054C0002830310558F091E02830310509F090E09E
:1054D0002091E8002E772093E800CBCF8191809334
:1054E000F100615071092F5F3F4FE7CF8091AE030C
:1054F000882341F0853041F08091E80083FFBECFE2
:1055000081E0089582E0089583E00895FC01809190
:10551000B5039091B60386179707A0F06115710542
:1055200029F48091E8008E778093E80090E061157F
:10553000710551F4911108C08091E80082FF35C0D7
:1055400080E00895BC01F2CF8091AE038823C9F1B9
:105550008530C9F18091E80083FD31C08091E80079
:1055600082FDEACF8091E80080FFE1CF8091F300D7
:105570002091F200382F6115710519F0283031059E
:1055800058F091E02830310509F090E08091E80072
:105590008E778093E800CBCF84918093F100319691
:1055A000615071092F5F3F4FE6CF8091AE03882392
:1055B00041F0853041F08091E80083FFBDCF81E06C
:1055C000089582E0089583E00895982F973028F099
:1055D0008F708093E90081E008959093E900242F73
:1055E000762F50E0981731F07091EC002091ED008B
:1055F0005091F00021FD02C09F5FE8CF3091EB0099
:105600003E7F3093EB003091ED003D7F3093ED0015
:105610003091EB0031603093EB007093EC002093FD
:10562000ED005093F0002091EE0027FDE5CF80E0E3
:1056300008958091AF0387FF13C08091E80082FF37
:1056400006C08091E8008B778093E80004C08091C9
:10565000AE038111F2CF08958091AE038823D9F370
:105660008091E80080FFF8CF8091E8008E77ECCF42
:105670002091E4003091E50095E6A9012091EC002D
:10568000822F817020FF06C08091E80080FF06C055
:1056900080E008952091E80022FD1AC08091AE03B9
:1056A000882389F0853089F08091EB0085FD0FC05B
:1056B0002091E4003091E50042175307F9F2915030
:1056C000E1F684E0089582E0089583E0089581E0A2
:1056D00008950E94D82B0E94E02BE0EEF0E080813C
:1056E00081608083E8EDF0E080818F77808319BC52
:1056F000A7EDB0E08C918E7F8C9380818F7E80832C
:105700001092AD0308950F931F93CF93DF930E94E0
:10571000D82B0E94E02BC8EDD0E088818F7788835A
:1057200088818068888388818F7D888319BC1092E6
:10573000AE031092AA031092AC031092AB0300EEDA
:1057400010E0F80180818B7F80838881816088836D
:1057500042E060E080E00E94E52AE1EEF0E0808136
:105760008E7F8083E2EEF0E08081816080838081A3
:1057700088608083F80180818E7F8083888180614A
:105780008883DF91CF911F910F910895E8EDF0E0AC
:1057900080818F7E8083E7EDF0E08081816080836F
:1057A00084E082BF81E08093AD030E94832B089543
:1057B000E8EDF0E080818E7F80831092E200089512
:1057C0001092DA001092E10008951F920F920FB626
:1057D0000F9211242F933F934F935F936F937F9377
:1057E0008F939F93AF93BF93EF93FF938091E100CB
:1057F00082FF0BC08091E20082FF07C08091E10030
:105800008B7F8093E1000E94442E8091DA0080FF1C
:1058100019C08091D80080FF15C08091DA008E7F7A
:105820008093DA008091D90080FF96C080E189BD25
:1058300082E189BD09B400FEFDCF81E08093AE0313
:105840000E9425288091E10080FF19C08091E2002C
:1058500080FF15C08091E2008E7F8093E2008091EE
:10586000E20080618093E2008091D80080628093A2
:10587000D80019BC85E08093AE030E94392880913E
:10588000E10084FF2BC08091E20084FF27C080E10B
:1058900089BD82E189BD89B5982F917080FFFBCFCA
:1058A0008091D8008F7D8093D8008091E1008F7E19
:1058B0008093E1008091E2008F7E8093E2008091EE
:1058C000E20081608093E2008091AA03882309F4BA
:1058D00049C084E08093AE030E9442288091E10099
:1058E00083FF29C08091E20083FF25C08091E10001
:1058F000877F8093E10082E08093AE031092AA0339
:105900008091E1008E7F8093E1008091E2008E7FA4
:105910008093E2008091E20080618093E20042E0A7
:1059200060E080E00E94E52A8091F000886080932A
:10593000F0000E943628FF91EF91BF91AF919F91A7
:105940008F917F916F915F914F913F912F910F9028
:105950000FBE0F901F90189519BC1092AE030E94B5
:10596000332870CF8091E30087FD93E09093AE03DE
:10597000B3CF1F920F920FB60F9211242F933F9324
:105980004F935F936F937F938F939F93AF93BF9347
:10599000CF93DF93EF93FF93D091E900DF70809175
:1059A000EC00C82FC17080FDC0E81092E900809122
:1059B000F000877F8093F00078940E94FD2C109275
:1059C000E9008091F00088608093F000CD2BCF70CB
:1059D000C093E900FF91EF91DF91CF91BF91AF911B
:1059E0009F918F917F916F915F914F913F912F91F7
:1059F0000F900FBE0F901F901895AAE2B0E0E3E061
:105A0000FDE20C940C2F8FEA93E02091F100FC0151
:105A10002193CF01F3E0873B9F07B9F70E946228EB
:105A20008091E80083FF1EC18091AF039091B00385
:105A30009A3008F017C1E92FF0E0E455FF4C0C94C0
:105A4000C62E803899F0823809F00CC18091B303DA
:105A50008F70873008F006C18093E9008091EB00D9
:105A600085FB882780F91092E90006C08091AB037E
:105A70009091AC03911182609091E800977F909390
:105A8000E8008093F1001092F1008091E8008E7799
:105A9000E5C0882309F4D3C0823009F0E3C08091C7
:105AA000B1038111D6C08091B3038F702FEF280FFF
:105AB000263008F0D7C08093E9002091EB0020FF4A
:105AC000C8C0933031F48091EB0080628093EB008A
:105AD000C0C09091EB0090619093EB0021E030E02A
